:020000040800F2
:10000000F016002021020008AB110008951000082E
:10001000A91100088B030008F91300080000000074
:10002000000000000000000000000000890100083E
:100030008D03000800000000CD010008B511000884
:100040003B0200083B0200083B0200083B0200089C
:100050003B0200083B0200083B0200083B0200088C
:100060003B0200083B0200083B0200083B0200087C
:100070003B0200083B0200083B0200083B0200086C
:100080003B0200083B0200083B0200083B0200085C
:100090003B0200083B0200083B0200083B0200084C
:1000A0003B0200083B0200083B0200083B0200083C
:1000B0003B0200083B020008411200083B02000816
:1000C0003B0200083B0200083B0200083B0200081C
:1000D0003B0200083B0200083B0200083B0200080C
:1000E0003B0200083B0200083B02000800F002F857
:1000F00000F03AF80AA090E8000C82448344AAF188
:100100000107DA4501D100F02FF8AFF2090EBAE885
:100110000F0013F0010F18BFFB1A43F0010318473B
:10012000D81D0000F81D0000103A24BF78C878C11F
:10013000FAD8520724BF30C830C144BF04680C60ED
:10014000704700000023002400250026103A28BF35
:1001500078C1FBD8520728BF30C148BF0B60704739
:100160001FB51FBD10B510BD00F0D6F81146FFF742
:10017000F7FF01F052F900F0F4F803B4FFF7F2FFD3
:1001800003BC00F0FBF80000224B19680868B0E8D7
:10019000F00F80F30988BFF36F8F4FF0000080F3FA
:1001A00011884EF00D0E70470000000006480068F0
:1001B000006880F3088862B661B6BFF34F8FBFF363
:1001C0006F8F00DF00BF00BF08ED00E0EFF3098094
:1001D000BFF36F8F0F4B1A6820E9F00F106008B55E
:1001E0004FF0500080F31188BFF34F8FBFF36F8F34
:1001F00001F0A6FC4FF0000080F31188BDE8084034
:1002000019680868B0E8F00F80F30988BFF36F8FB2
:10021000704700BF18000020EFF305807047000012
:100220000948804709480047FEE7FEE7FEE7FEE78A
:10023000FEE7FEE7FEE7FEE7FEE7FEE704480549C6
:10024000054A064B704700003F120008ED00000809
:10025000F0100020F0160020F0120020F012002014
:1002600010B5203AC0F00B80B1E81850203AA0E851
:100270001850B1E81850A0E81850BFF4F5AF5FEA85
:10028000027C24BFB1E81850A0E8185044BF18C938
:1002900018C0BDE810405FEA827C24BF51F8043BDF
:1002A00040F8043B08BF7047D20728BF31F8023B33
:1002B00048BF11F8012B28BF20F8023B48BF00F8C7
:1002C000012B70474FF0000200B513469446964646
:1002D000203922BFA0E80C50A0E80C50B1F1200159
:1002E000BFF4F7AF090728BFA0E80C5048BF0CC007
:1002F0005DF804EB890028BF40F8042B08BF704765
:1003000048BF20F8022B11F0804F18BF00F8012BD6
:100310007047704770477047754600F02BF8AE463F
:1003200005006946534620F00700854618B020B501
:10033000FFF784FFBDE820404FF000064FF00007B4
:100340004FF000084FF0000B21F00701AC46ACE87D
:10035000C009ACE8C009ACE8C009ACE8C0098D46EA
:10036000704710B50446AFF300802046BDE810404A
:10037000FFF703BF00487047901000200149182084
:10038000ABBEFEE7260002007047FEE7704772B67C
:10039000FEE700002DE9F84FDFF8B8910024A9F13D
:1003A000040B23460F2709F1040AABF1040EC9E040
:1003B0000125A5402A40AA427DD1674ED1F804C04C
:1003C000ACEB0608B44532D014DCBCF1030F3AD0D4
:1003D00009DCBCF1000F2AD0BCF1010F1CD0BCF12C
:1003E000020F31D11DE0BCF1110F17D0BCF1120F7B
:1003F0002AD119E0B8F5881F19D006DCB8F5803F7E
:1004000015D0B8F5801F1FD111E0B8F5001F0ED030
:10041000B8F5041F18D10AE0CB6815E0CB681B1DA6
:1004200012E0CB6808330FE0CB680C330CE08B682C
:100430002BB1012B4FF0080303D0456104E00423E6
:1004400002E0056100E00023FF2A01D8064601E032
:1004500000F104064FEA840501D9A5F12005D6F87C
:10046000008007FA05FC28EA0C0803FA05F548EABB
:100470000508C6F800804D68ED0062D5374DAE69BD
:1004800046F00106AE61AD6924F0030605F00105F2
:100490000095334D06EB050CDCF80850A607360F27
:1004A00007FA06F825EA0805DFF8B880404503D1C9
:1004B0004FF0000817E044E0DFF8AC80404502D17F
:1004C0004FF001080FE0DFF8A480404502D14FF063
:1004D000020808E0DFF89880404502D14FF0030899
:1004E00001E04FF0040808FA06F848EA0508CCF8DD
:1004F00008804D68D9F80060ED024D4601D51643DD
:1005000000E096432E604D68DAF80060AD02554673
:1005100001D5164300E096432E604D68DBF800607D
:10052000AD035D4601D5164300E096432E604D684D
:10053000DEF80060ED03754601D5164300E09643F2
:100540002E60641C0D682A46E5407FF431AFBDE89B
:10055000F88F000008040140000011100010024054
:100560000000014000080140000C01400010014063
:100570000014014001488068704700000800002016
:1005800002488168027811448160704708000020A9
:10059000074810B5016841F010010160032000F028
:1005A000A7F80F2000F006F800F050F8002010BD6A
:1005B0000020024030B505461F4887B0C16941F0B0
:1005C0000401C161C06906A900F00400009001A8FF
:1005D00000F036F90498B0B100F052F94000174924
:1005E000174AB0FBF1F11748491E0260416040F222
:1005F000E7320021C0E903218160816100F04CFBFA
:10060000040003D015E000F03BF9E8E70D4800F0E6
:1006100083FB04000DD11E2000F03CF8102D07D202
:10062000002229461E2000F043F80748056000E03C
:10063000012407B0204630BD0010024040420F00A8
:1006400000080040580300200C0000200F4808B5A7
:10065000816941F001018161816901F0010100912D
:10066000C16941F08051C161C069002200F0805031
:1006700000900F21901E00F01BF80548416821F002
:10068000E06141F00071416008BD000000100240CF
:1006900000000140002809DB00F01F020121914009
:1006A0004009800000F1E020C0F800117047000010
:1006B000F0B40E4B1B680C46C3F30223C3F10705CD
:1006C000042D00D90425191D072901D2002300E0BB
:1006D000DB1E012606FA05F1491E214099409E4085
:1006E000761E16403143F0BC00F087BE0CED00E0F2
:1006F000064900F0070208684FF6FF03184040EA79
:100700000220034A10430860704700000CED00E02F
:100710000000FA052DE9F0470F46050061D0434E71
:10072000306800F00700B84209D2306820F00700B6
:1007300038433060306800F00700B84251D1286873
:100740003B4C810712D5400703D5606840F4E06058
:1007500060602878000703D5606840F460506060EE
:100760006068A96820F0F000084360602878C0073E
:1007700028D06868012810D02168022810D0890785
:1007800000292EDA616821F0030101436160FFF75F
:10079000F1FE804641F288390DE021688903EFE7D8
:1007A0008901EDE7FFF7E6FEA0EB0801494502D914
:1007B0000320BDE8F0876068696800F00C00B0EBCA
:1007C000810FEFD1306800F00700B8420BD93068D4
:1007D00020F0070038433060306800F00700B8426E
:1007E00001D00120E5E72878400705D56068E96871
:1007F00020F4E060084360602878000706D5606850
:10080000296920F4605040EAC100606000F058F8A7
:100810006168084AC1F30311515CC8400649086089
:1008200006480068FFF7C6FE0020C2E7002002402D
:1008300000100240CA1E0008140000200C00002016
:100840000F2202600C4A536803F0030343605368AD
:1008500003F0F0038360536803F4E063C3605268FD
:100860004FF4E06303EAD20202610448006800F03A
:10087000070008607047000000100240002002409E
:100880000448054900684968044AC1F30221515CE3
:10089000C84070471400002000100240DA1E000813
:1008A0000448054900684968044AC1F3C221515C03
:1008B000C84070471400002000100240DA1E0008F3
:1008C0000E4A51680E4801F00C03042B11D0082B7E
:1008D0000FD10C48C1F38343C903C05C0AD55168EA
:1008E000084AC1F34041921E515C054A5043B0FB97
:1008F000F1F070470449484370470000001002407F
:1009000000127A00BA1E000800093D002DE9F84FD8
:10091000040070D02078C04DC00749D06868C0F38B
:100920008100012807D06868C0F38100022809D13E
:100930006868C00306D52868800339D56068002838
:10094000E7D035E06068B0F5803F0BD010B1B0F56E
:10095000A02F11D0286820F480302860286820F467
:10096000802002E0286840F480302860606890B100
:10097000FFF700FE06460AE0286840F48020286061
:10098000F0E700BFFFF7F6FD801B642873D82868E6
:100990008003F7D50CE0FFF7EDFD064605E000BF4C
:1009A000FFF7E8FD801B6428F0D828688003F7D49F
:1009B00020789A4E80074FF001094FF0000839D592
:1009C000686810F00C0F07D06868C0F38100022837
:1009D00009D16868C00306D42868800714D5206947
:1009E000012808D110E02069B0B1C6F80090FFF7E7
:1009F000C1FD074605E00AE1FFF7BCFDC01B022868
:100A0000C4D828688007F7D52868616920F0F80005
:100A100040EAC10028600DE0C6F80080FFF7AAFD9B
:100A2000074604E0FFF7A6FDC01B022823D828686C
:100A30008007F7D4207800072CD57948A169D9B16F
:100A4000C0F80090FFF796FD074604E0FFF792FD1F
:100A5000C01B02280FD8686A8007F7D571484FF489
:100A6000FA510068B0FBF1F0009000BF0098411E01
:100A70000091FAD20EE080E0C0F80080FFF77AFD26
:100A8000074604E0FFF776FDC01B022875D8686AA8
:100A90008007F7D42078400760D5E8690027C000B8
:100AA00008D4E86940F08050E861E869012700F067
:100AB000805000905C480168C90513D401688346E2
:100AC00041F480710160FFF755FD824606E000BFEA
:100AD000FFF750FDA0EB0A0064284ED8DBF80000B9
:100AE000C005F5D5E06801280AD008B1052813D063
:100AF000286A20F001002862286A20F0040002E041
:100B0000286A40F001002862E06841F2883B98B111
:100B1000FFF730FD82460BE0286A40F004002862AF
:100B2000EEE700BFFFF726FDA0EB0A0159455AD8B2
:100B3000286A8007F6D50CE0FFF71CFD824605E029
:100B4000FFF718FDA0EB0A0159454CD8286A800729
:100B5000F6D41FB1E86920F08050E861E06988B3FD
:100B60006968C1F38101022944D00228C6F8608077
:100B700004D0FFF7FFFC044638E034E0FFF7FAFC4E
:100B8000074604E0FFF7F6FCC01B02282BD82868B4
:100B90008001F7D4206AB0F5803F05D16868A1686C
:100BA00020F4003008436860D4E90801084369680C
:100BB00021F4741108436860C6F86090FFF7DAFC0E
:100BC000044606E025E000BFFFF7D4FC001B022826
:100BD00009D828688001F7D51BE000BFFFF7CAFCE1
:100BE000001B022802D90320BDE8F88F2868800185
:100BF000F4D40EE00128F7D06868226A00F480314E
:100C0000914204D1616A00F47010884201D0012041
:100C1000EAE70020E8E7000000100240000042423E
:100C2000800442421400002000700040704770476A
:100C300070B590F83C20012A26D0012480F83C4071
:100C4000022280F83D2003685A689D6822F07006F1
:100C50000A6832435A600D4B02689A4208D0B2F1DA
:100C6000804F05D00A4B9A4202D00A4B9A4204D1D7
:100C7000496825F080031943916080F83D400021C8
:100C800080F83C10084670BD022070BD002C014069
:100C9000000400400008004010B5040003D094F8A0
:100CA0003D0010B107E0012010BD002084F83C0099
:100CB000204600F01FF8022084F83D00211D206826
:100CC00000F0C4FA012084F8460084F83E0084F85D
:100CD0003F0084F8400084F8410084F8420084F822
:100CE000430084F8440084F8450084F83D00002067
:100CF00010BD000008B50068B0F1804F08D105486C
:100D0000C16941F00101C161C06900F001000090BA
:100D100008BD00000010024090F83D10012901D0EC
:100D200001207047022180F83D100168CA6842F036
:100D30000102CA6000680B49884208D0B0F1804FB8
:100D400005D00949884202D00849884204D1816807
:100D500001F00701062903D0016841F0010101609B
:100D600000207047002C01400004004000080040B3
:100D700070B5044690F83C000025012817D00126E4
:100D800084F83C60022084F83D002068826822F0EC
:100D9000770222F47F4282600868502838D00DDC48
:100DA00020284FD005DC90B3102811D14AE0022052
:100DB00070BD302846D040280AD13BE060282FD0B3
:100DC00070280DD0B0F5805F03D0B0F5005F12D071
:100DD000012584F83D60002084F83C00284670BD61
:100DE000CB68D1E90121206800F066FA20688168AB
:100DF00041F0770109E0CB68D1E90121206800F0DA
:100E00005BFA2068816841F480418160E1E719E084
:100E1000CA684968206800F061FA5021206806E03D
:100E2000CA684968206800F06AFA6021206800F00A
:100E30004DFACEE7CA684968206800F04FFA4021B1
:100E40002068F4E7226801461046F0E7704770B565
:100E50000446006801694FF00005C943890715D4AD
:100E6000C168C943890711D4E91E016101202077B7
:100E7000206880698007204602D0FFF7E7FF04E082
:100E800000F098F8204600F096F825772068016970
:100E9000C943490717D4C168C943490713D46FF040
:100EA00004010161022020772068806910F4407FEE
:100EB000204602D0FFF7CAFF04E000F07BF820468E
:100EC00000F079F8257720680169C943090716D42D
:100ED000C168C943090712D46FF0080101610420F9
:100EE00020772068C0698007204602D0FFF7AEFF58
:100EF00004E000F05FF8204600F05DF825772068F8
:100F00000169C943C90617D4C168C943C90613D4C6
:100F10006FF010010161082020772068C06910F48B
:100F2000407F204602D0FFF791FF04E000F042F836
:100F3000204600F040F8257720680169C943C907B9
:100F400008D1C168C943C90704D1891E016120467F
:100F500000F032F820680169C943090609D4C16864
:100F6000C943090605D46FF0800101612046FFF7EF
:100F70005DFE20680169C943490609D4C168C943B7
:100F8000490605D46FF040010161204600F01EF8CB
:100F900020680169C94389060BD4C168C943890621
:100FA00007D46FF0200101612046BDE87040FFF7D3
:100FB0003EBE70BD7047704700680349884201D14A
:100FC000FFF7DEBA7047000000080040704770B5B8
:100FD000040004D094F83D00002510B106E0012083
:100FE00070BD84F83C50204600F01CF8022084F8C4
:100FF0003D00204600F096F92068016921F4804107
:1010000001612068416921F02A0141612068C168BD
:1010100041F40051C1602564012084F83D000020A6
:1010200070BD000030B585B0002400940194029496
:10103000039400681449884224D11448816941F41A
:1010400080418161816901F480410491816941F0AD
:101050000401816180690E4D00F0040004904FF49A
:1010600040700090022001900320039069462846BA
:10107000FFF790F92815CDE9000469462846029447
:10108000FFF788F905B030BD00380140001002407C
:1010900000080140FEE7012000F0D4F9FBE7000062
:1010A000044908B58A6902438A618969014000914F
:1010B00008BD00000010024010B58EB01C220B4984
:1010C0006846FFF7CDF80021684600F0C7F9084CE4
:1010D00006491C2220601C3107A8FFF7C1F8002137
:1010E00007A800F0BBF960600EB010BD801E0008BC
:1010F0000000002010B52020FFF7D2FFBDE810400F
:101100000420FFF7CDBF000010B586B000241648BC
:10111000009401940294039404944FF08041059448
:10112000C0E900144FF6FF71C0E902410461846117
:10113000FFF7B2FD08B1FFF72AF94FF48050009095
:1011400069460948FFF714FE08B1FFF720F9049437
:1011500004A905480594FFF76BFD002801D0FFF7AF
:1011600016F906B010BD0000CC0200200D4810B5E5
:101170000B4901604FF4E1314160002181600C2294
:10118000C160C0E904128161C1610162FFF71FFF04
:10119000002803D0BDE81040FFF7F9B810BD0000EB
:1011A0000038014014030020FEE7FEE7012000F0B4
:1011B00049F9FBE710B5502080F31188BFF34F8F3A
:1011C000BFF36F8F00F096FD18B104494FF08050C7
:1011D0000860002080F3118810BD000004ED00E0DD
:1011E00030B58FB028216846FFF76CF814210AA8A3
:1011F000FFF768F801210804CDE9001000240294EB
:1012000002250491CDE907504FF4E010099068469B
:10121000FFF77CFB08B172B6FEE70F20CDE90A05A7
:101220004FF48060CDE90C4002210AA80E94FFF72C
:1012300071FA002801D072B6FEE70FB030BD7047DA
:101240000148FFF704BE000058030020F0B5026813
:10125000164B174C174D4FF08047984205D0B842B7
:1012600003D0A04201D0A84203D122F070064A6800
:101270003243984205D0B84203D0A04201D0A842E0
:1012800003D122F44074CA6822434C6922F08002E0
:10129000224302608A68C2620A688262984201D16F
:1012A0000969016301214161F0BD0000002C01408A
:1012B000000400400008004010B5846842EA0322A0
:1012C00024F47F440A432243826010BD826822F0E6
:1012D00070020A4342F007018160704710B5036A4B
:1012E000046A24F001040462846924F0F00444EAEE
:1012F000021423F00A020A438461026210BD10B591
:10130000036A046A24F010040462846923F0A003D1
:1013100024F4704444EA023243EA0111826101621A
:1013200010BD00002DE9F04104460068C16821F0BD
:101330000C01C16020680169D4E906231A43E568FD
:10134000236A21F47C512B431A430A4342F400617F
:1013500001612268D16841F20C6081432369A06871
:10136000184363690B431843D0602068416921F436
:10137000407141611F49206864253226884202D1AC
:10138000FFF78EFA01E0FFF77BFA00EBC00101EBFB
:10139000001160686FF0180C8000B1FBF0F3B3FB34
:1013A000F5F3B1FBF0F7B1FBF0F203FB0CF307EB45
:1013B000830306EB0313B2FBF5F2B3FBF5F3120163
:1013C00003F0F00302EB4302B1FBF0F3B1FBF0F0EA
:1013D000B0FBF5F000FB0CF003EB800006EB001017
:1013E000B0FBF5F0216800F00F0010448860BDE804
:1013F000F081000000380140FEE70907090E0028CF
:1014000004DB00F1E02080F80014704700F00F00CA
:1014100000F1E02080F8141D7047FFF7B9F8FFF7DE
:10142000DFFEFFF767FEFFF76FFEFFF79FFEFFF798
:1014300043FE00F00EF8FEE701460020842900D0AC
:10144000C81C704710B500B9012000F015FB002042
:1014500010BD10B500F036FB002010BD7FB50D4665
:1014600004464169B0F9080081B1A16971B1FFF783
:10147000E3FFD4E905128DE80700D4E900102B46FC
:10148000226900F00CFC039004B070BDFFF7D4FF9C
:1014900003A9CDE90001208A2B4682B2D4E90010CD
:1014A00000F0D0FB012801D00020EDE70398EBE726
:1014B0002DE9F041184C0F46054666692068001D6D
:1014C00000F016FA38B9206890F82C1001208840F6
:1014D000A1698143A161681C07D137B12168BDE8CA
:1014E000F0410E48091D00F047BA20683544B54266
:1014F0004560216805D2A068BDE8F041091D00F0F3
:1015000023BA6068091D00F01FFA206B854200D2E3
:101510002563BDE8F0810000180000207C04002055
:101520002DE9F041054600F033FA2E4C2069401CAD
:10153000206120682C4F10B1E06940B32DE0256098
:101540002069012829D1002606EB860007EB8000E0
:1015500000F0ECF9761C072EF6D323488C3000F00F
:10156000E5F92148A03000F0E1F91F48B43000F05F
:10157000DDF91D48C83000F0D9F91B48DC3000F017
:10158000D5F919488C3060601430A06005E02068FF
:10159000E96AC06A884200D82560E06A401CE062BF
:1015A000E96A0120A26988401043A06101EB810033
:1015B00007EB8000291D00F0DFF900F009FAE0696F
:1015C00000280CD02068E96AC06A884207D207491F
:1015D0004FF080500860BFF34F8FBFF36F8FBDE8AF
:1015E000F081000018000020A003002004ED00E0BE
:1015F00010B5044690F8510058B101280CD00228CB
:101600000FD0502080F31188BFF34F8FBFF36F8F3F
:10161000FEE7206B00F0F0F92046BDE8104000F036
:10162000EBB910BD10484FF44061420706D0C01D11
:101630000D4920F00700411AC1F540610B4A002313
:101640000144C2E900030839103A21F00701116092
:101650004B600B600B1AC0E9001393604FF0004021
:101660005360D060704700009004002064000020A8
:10167000144E154CA6F1C8074FF08058DFF84C9077
:1016800012E000BF00F084F9F068C568281D00F082
:101690002FF92069401E2061E068401EE06000F0E4
:1016A00097F92846FFF7A4FFE0680028EAD13868D8
:1016B0000128F9D9C9F80080BFF34F8FBFF36F8FAE
:1016C000F2E70000680400201800002004ED00E0AC
:1016D0002DE9F0479A46DDE9098481466FF003035E
:1016E000206B03EB82021044089D20F00706700770
:1016F00007D0502080F31188BFF34F8FBFF36F8F57
:10170000FEE723180A5C83F834200A5C12B1401CFF
:101710001028F6D3002784F84370072D00D3062540
:10172000E562C4E91157201D00F00BF904F118001F
:1017300000F007F92461C5F107006462A061E76465
:1017400084F8507052464946304600F0BFF8206099
:10175000B8F1000F01D0C8F80040BDE8F0870000E4
:1017600030B5114900E011460A688242FBD34B684C
:101770005C18844203D140681844486008464368B6
:101780001C18944209D1084C103C2468A24209D08C
:1017900052681A4442600A6812680260814200D0AE
:1017A000086030BD0460F9E7640000200648416825
:1017B000096829B14168C968C96849680163704707
:1017C0004FF0FF31FAE70000180000200848406899
:1017D000401C4FF0500080F3118804D0BFF34F8FAE
:1017E000BFF36F8FFEE7BFF34F8FBFF36F8FFEE73F
:1017F0006C0000202DE9F0410546002700F098F923
:10180000314E306808B9FFF70DFFF06805424BD143
:10181000C5B3083568070ED005F00700C0F1080011
:101820000544680707D0502080F31188BFF34F8F1D
:10183000BFF36F8FFEE72DB37068854234D822481E
:10184000103001460C6801E020460C466168A94250
:1018500002D221680029F7D131688C4224D0076870
:101860002168016060680837411B10290FD9601991
:10187000420708D0502080F31188BFF34F8FBFF389
:101880006F8FFEE710E041606560FFF769FF6168F8
:101890007068401A7060B268904200D2B060F06820
:1018A00001430020C4E9000100F088FA780707D05E
:1018B000502080F31188BFF34F8FBFF36F8FFEE787
:1018C0003846BDE8F08100005400002010B5031F29
:1018D0004FF080741C601B1F21F001011960191F5B
:1018E000024B0B60143940380A6010BDCD17000858
:1018F000D0E9013201699A60D0E901235A604A684F
:10190000824201D182684A60002202610868401E5A
:101910000860086870470000034B036003F154003F
:1019200008608020106070477800002000F10801F6
:101930004FF0FF32C0E90112C16001610021016076
:10194000704700210161704730B50B685A1C02D006
:1019500000F1080202E0026904E0224654682568AA
:101960009D42FAD953684B6099608A605160086162
:101970000168491C016030BD42684A6093688B6011
:1019800093685960916008610168491C0160704763
:10199000502080F31188BFF34F8FBFF36F8F0A4938
:1019A0004868401C486001280CD10848006810F0C5
:1019B000FF0F07D0502080F31188BFF34F8FBFF384
:1019C0006F8FFEE7704700006C00002004ED00E020
:1019D0000849486828B1401E486001D180F3118849
:1019E0007047502080F31188BFF34F8FBFF36F8F84
:1019F000FEE700006C00002070B5002827D0144DD1
:101A0000A0F108046168E868014207D1502080F322
:101A10001188BFF34F8FBFF36F8FFEE722683AB193
:101A2000502080F31188BFF34F8FBFF36F8FFEE715
:101A30008143616000F07CF8606869680844686010
:101A40002046FFF78DFEBDE8704000F0B7B970BDCD
:101A5000540000204FF0E020002101618161054920
:101A60004FF47A720968B1FBF2F1491E4161072116
:101A7000016170471400002010B5020014D00F4817
:101A8000806B38B1502080F31188BFF34F8FBFF3C4
:101A90006F8FFEE700F04CF800211046FFF708FDBD
:101AA00000F08CF9002807D105494FF080500860FC
:101AB000BFF34F8FBFF36F8F10BD000018000020E1
:101AC00004ED00E010B586B00024039405AA04A933
:101AD00003A80494FFF720FFDDE903010094CDE99A
:101AE000011000230EA11048059A00F0D8F80F4904
:101AF0000028486311D0502080F31188BFF34F8F26
:101B0000BFF36F8F4FF0FF3008630120C8614C6155
:101B100006B0BDE8104000F041B806B010BD0000AE
:101B200049444C45000000007116000818000020D0
:101B30000248816B491C8163704700001800002037
:101B40001448816B11B1012141627047002141624B
:101B50008169B1FA81F1C1F11F0101EB81020E49E6
:101B600051F822306BB101EB820101F108034A68A0
:101B700052684A609A4201D152684A60D168016055
:101B80007047502080F31188BFF34F8FBFF36F8FE2
:101B9000FEE7000018000020A00300201CB5264925
:101BA00008780190FF20087008788DF800009DF8F3
:101BB00000009DF8002000F0F000904207D0502077
:101BC00080F31188BFF34F8FBFF36F8FFEE79DF84F
:101BD00000001A4B00F0500018700720986005E0D4
:101BE0009DF8002052008DF80020401E9DF8002036
:101BF0001206F5D49860032807D0502080F311888E
:101C0000BFF34F8FBFF36F8FFEE74FF440709860C4
:101C1000019808700A48016841F470010160016888
:101C200041F070410160FFF715FF00205860FEF79A
:101C3000BDFA00201CBD000000E400E06C000020A4
:101C400020ED00E02DE9FF5F8346DDE90E87994630
:101C500016468A469000FFF7CDFD05001CD05420A3
:101C6000FFF7C8FD040014D00020256384F851005C
:101C7000CDE90240CDE900874B46324651465846F1
:101C8000FFF726FD2046FFF74BFC012004B0BDE81E
:101C9000F09F2846FFF7B0FE4FF0FF30F6E7F0B5B3
:101CA00085B0DDE90B640A9DA6B1DCB1542700972D
:101CB0002663022684F85160002604AFCDE902466F
:101CC000CDE90057FFF704FD2046FFF729FC0498F3
:101CD00005B0F0BD502080F31188BFF34F8FBFF3E4
:101CE0006F8FFEE7502080F31188BFF34F8FBFF353
:101CF0006F8FFEE72DE9F0412E4C0027A06B40B11D
:101D0000206A401C2062606A00B101273846BDE8A5
:101D1000F0816669761C666113D16068006838B12D
:101D2000502080F31188BFF34F8FBFF36F8FFEE712
:101D30006068A1686160A060A06A401CA062FFF7B3
:101D400035FD206BDFF87080864209D3606800683B
:101D500080B16068C068C568686886420DD220633B
:101D60002068C06A00EB800158F821000128CAD918
:101D70000127C8E74FF0FF30F1E7281DFFF7B8FD56
:101D8000A86A18B105F11800FFF7B2FDE86A012151
:101D9000A26981401143A16100EB800108EB810041
:101DA000291DFFF7E9FDE86A2168C96A8842CDD399
:101DB0000127CBE718000020A00300202DE9F04701
:101DC0002C4D00242746A86B38B1FFF7E1FDA86B26
:101DD000401EA863A86B40B146E0502080F31188F4
:101DE000BFF34F8FBFF36F8FFEE72969224E0120AB
:101DF000D1B3A6F1B40980463068E8B1F068C46890
:101E000004F11800FFF774FD201DFFF771FDE06A73
:101E1000AA6908FA00F11143A96100EB800109EBFE
:101E20008100211DFFF7A8FDE06A2968C96A884280
:101E3000E2D3C5F82480DFE70CB1FFF7B7FC2C6ACA
:101E400044B14646FFF756FF00B16E62641EF9D1F9
:101E500000202862686A38B10849012738070860FD
:101E6000BFF34F8FBFF36F8FFFF7B2FD3846BDE86A
:101E7000F0870000180000205404002004ED00E06A
:101E8000EC1E0008AD11000800000000000000007A
:101E9000800000000000000000000000E41E0008B8
:101EA00097100008FEFF0000000000008000000006
:101EB0000000000000000000010202030405060704
:101EC00008090A0B0C0D0E0F101000000000000096
:101ED00000000102030406070809000000000102D7
:101EE000030400004C45445F52554E006465666132
:101EF000756C745461736B00181F0008000000209B
:101F00007800000028010008901F000878000020D9
:101F100078160000440100080000000000000000E6
:101F20000100000010000000000000000024F40088
:101F300000000000000000000000000000000000A1
:101F40000000000000000000000000000000000091
:101F50000000000000000000000000000000000081
:101F60000000000000000000000000000000000071
:101F70000000000000000000000000000000000061
:101F80000000000000000000AAAAAAAA00000000A9
:04000005080000ED02
:00000001FF
